{
  "address": "0xe7f1725E7734CE288F8367e1Bb143E90bb3F0512",
  "abi": [
    {
      "inputs": [
        {
          "internalType": "address",
          "name": "pricefeedAddress",
          "type": "address"
        }
      ],
      "stateMutability": "nonpayable",
      "type": "constructor"
    },
    {
      "inputs": [],
      "name": "fund",
      "outputs": [],
      "stateMutability": "payable",
      "type": "function"
    },
    {
      "inputs": [],
      "name": "i_owner",
      "outputs": [
        {
          "internalType": "address",
          "name": "",
          "type": "address"
        }
      ],
      "stateMutability": "view",
      "type": "function"
    },
    {
      "inputs": [],
      "name": "minimumUSD",
      "outputs": [
        {
          "internalType": "uint256",
          "name": "",
          "type": "uint256"
        }
      ],
      "stateMutability": "view",
      "type": "function"
    },
    {
      "inputs": [
        {
          "internalType": "address",
          "name": "",
          "type": "address"
        }
      ],
      "name": "s_addressToAmount",
      "outputs": [
        {
          "internalType": "uint256",
          "name": "",
          "type": "uint256"
        }
      ],
      "stateMutability": "view",
      "type": "function"
    },
    {
      "inputs": [
        {
          "internalType": "uint256",
          "name": "",
          "type": "uint256"
        }
      ],
      "name": "s_funders",
      "outputs": [
        {
          "internalType": "address",
          "name": "",
          "type": "address"
        }
      ],
      "stateMutability": "view",
      "type": "function"
    },
    {
      "inputs": [],
      "name": "s_pricefeed",
      "outputs": [
        {
          "internalType": "contract AggregatorV3Interface",
          "name": "",
          "type": "address"
        }
      ],
      "stateMutability": "view",
      "type": "function"
    },
    {
      "inputs": [],
      "name": "withdraw",
      "outputs": [],
      "stateMutability": "nonpayable",
      "type": "function"
    }
  ],
  "transactionHash": "0x0ba578c98cfcc7e408c2abcbd739725a9a07ec1141e447ec9ea19be068bb15d1",
  "args": [
    "0x5FbDB2315678afecb367f032d93F642f64180aa3"
  ],
  "numDeployments": 1,
  "solcInputHash": "fda69a9b476a57f1060f19734d4748a9",
  "bytecode": "0x60a0604052603260005534801561001557600080fd5b5060405162001096380380620010968339818101604052810190610039919061011a565b3373ffffffffffffffffffffffffffffffffffffffff1660808173ffffffffffffffffffffffffffffffffffffffff1660601b8152505080600360006101000a81548173ffffffffffffffffffffffffffffffffffffffff021916908373ffffffffffffffffffffffffffffffffffffffff16021790555050610147565b600080fd5b600073ffffffffffffffffffffffffffffffffffffffff82169050919050565b60006100e7826100bc565b9050919050565b6100f7816100dc565b811461010257600080fd5b50565b600081519050610114816100ee565b92915050565b6000602082840312156101305761012f6100b7565b5b600061013e84828501610105565b91505092915050565b60805160601c610f296200016d6000396000818161019901526105f80152610f296000f3fe6080604052600436106100705760003560e01c8063b60d42881161004e578063b60d4288146100f4578063b7ef82c8146100fe578063d30ce7461461013b578063dba6335f1461016657610070565b80633430a88c146100755780633ccfd60b146100a057806354861af7146100b7575b600080fd5b34801561008157600080fd5b5061008a610191565b60405161009791906107ab565b60405180910390f35b3480156100ac57600080fd5b506100b5610197565b005b3480156100c357600080fd5b506100de60048036038101906100d991906107f7565b610445565b6040516100eb9190610865565b60405180910390f35b6100fc610484565b005b34801561010a57600080fd5b50610125600480360381019061012091906108ac565b6105b8565b60405161013291906107ab565b60405180910390f35b34801561014757600080fd5b506101506105d0565b60405161015d9190610938565b60405180910390f35b34801561017257600080fd5b5061017b6105f6565b6040516101889190610865565b60405180910390f35b60005481565b7f000000000000000000000000000000000000000000000000000000000000000073ffffffffffffffffffffffffffffffffffffffff163373ffffffffffffffffffffffffffffffffffffffff1614610225576040517f08c379a000000000000000000000000000000000000000000000000000000000815260040161021c906109b0565b60405180910390fd5b600060018054806020026020016040519081016040528092919081815260200182805480156102a957602002820191906000526020600020905b8160009054906101000a900473ffffffffffffffffffffffffffffffffffffffff1673ffffffffffffffffffffffffffffffffffffffff168152602001906001019080831161025f575b5050505050905060005b81518110156103345760008282815181106102d1576102d06109d0565b5b602002602001015190506000600260008373ffffffffffffffffffffffffffffffffffffffff1673ffffffffffffffffffffffffffffffffffffffff1681526020019081526020016000208190555050808061032c90610a2e565b9150506102b3565b50600067ffffffffffffffff8111156103505761034f610a77565b5b60405190808252806020026020018201604052801561037e5781602001602082028036833780820191505090505b50600190805190602001906103949291906106eb565b5060003373ffffffffffffffffffffffffffffffffffffffff16476040516103bb90610ad7565b60006040518083038185875af1925050503d80600081146103f8576040519150601f19603f3d011682016040523d82523d6000602084013e6103fd565b606091505b5050905080610441576040517f08c379a000000000000000000000000000000000000000000000000000000000815260040161043890610b38565b60405180910390fd5b5050565b6001818154811061045557600080fd5b906000526020600020016000915054906101000a900473ffffffffffffffffffffffffffffffffffffffff1681565b6000546104bc600360009054906101000a900473ffffffffffffffffffffffffffffffffffffffff163461061a90919063ffffffff16565b10156104fd576040517f08c379a00000000000000000000000000000000000000000000000000000000081526004016104f490610ba4565b60405180910390fd5b6001339080600181540180825580915050600190039060005260206000200160009091909190916101000a81548173ffffffffffffffffffffffffffffffffffffffff021916908373ffffffffffffffffffffffffffffffffffffffff16021790555034600260003373ffffffffffffffffffffffffffffffffffffffff1673ffffffffffffffffffffffffffffffffffffffff16815260200190815260200160002060008282546105af9190610bc4565b92505081905550565b60026020528060005260406000206000915090505481565b600360009054906101000a900473ffffffffffffffffffffffffffffffffffffffff1681565b7f000000000000000000000000000000000000000000000000000000000000000081565b6000670de0b6b3a76400008361062f8461064b565b6106399190610c1a565b6106439190610ca3565b905092915050565b6000808273ffffffffffffffffffffffffffffffffffffffff1663feaf968c6040518163ffffffff1660e01b815260040160a06040518083038186803b15801561069457600080fd5b505afa1580156106a8573d6000803e3d6000fd5b505050506040513d601f19601f820116820180604052508101906106cc9190610d61565b5050509150506402540be400816106e39190610ddc565b915050919050565b828054828255906000526020600020908101928215610764579160200282015b828111156107635782518260006101000a81548173ffffffffffffffffffffffffffffffffffffffff021916908373ffffffffffffffffffffffffffffffffffffffff1602179055509160200191906001019061070b565b5b5090506107719190610775565b5090565b5b8082111561078e576000816000905550600101610776565b5090565b6000819050919050565b6107a581610792565b82525050565b60006020820190506107c0600083018461079c565b92915050565b600080fd5b6107d481610792565b81146107df57600080fd5b50565b6000813590506107f1816107cb565b92915050565b60006020828403121561080d5761080c6107c6565b5b600061081b848285016107e2565b91505092915050565b600073ffffffffffffffffffffffffffffffffffffffff82169050919050565b600061084f82610824565b9050919050565b61085f81610844565b82525050565b600060208201905061087a6000830184610856565b92915050565b61088981610844565b811461089457600080fd5b50565b6000813590506108a681610880565b92915050565b6000602082840312156108c2576108c16107c6565b5b60006108d084828501610897565b91505092915050565b6000819050919050565b60006108fe6108f96108f484610824565b6108d9565b610824565b9050919050565b6000610910826108e3565b9050919050565b600061092282610905565b9050919050565b61093281610917565b82525050565b600060208201905061094d6000830184610929565b92915050565b600082825260208201905092915050565b7f53656e646572206973206e6f74206f776e657200000000000000000000000000600082015250565b600061099a601383610953565b91506109a582610964565b602082019050919050565b600060208201905081810360008301526109c98161098d565b9050919050565b7f4e487b7100000000000000000000000000000000000000000000000000000000600052603260045260246000fd5b7f4e487b7100000000000000000000000000000000000000000000000000000000600052601160045260246000fd5b6000610a3982610792565b91507fffffffffffffffffffffffffffffffffffffffffffffffffffffffffffffffff821415610a6c57610a6b6109ff565b5b600182019050919050565b7f4e487b7100000000000000000000000000000000000000000000000000000000600052604160045260246000fd5b600081905092915050565b50565b6000610ac1600083610aa6565b9150610acc82610ab1565b600082019050919050565b6000610ae282610ab4565b9150819050919050565b7f43616c6c204661696c6564000000000000000000000000000000000000000000600082015250565b6000610b22600b83610953565b9150610b2d82610aec565b602082019050919050565b60006020820190508181036000830152610b5181610b15565b9050919050565b7f4469646e27742070617920656e6f756768205553440000000000000000000000600082015250565b6000610b8e601583610953565b9150610b9982610b58565b602082019050919050565b60006020820190508181036000830152610bbd81610b81565b9050919050565b6000610bcf82610792565b9150610bda83610792565b9250827fffffffffffffffffffffffffffffffffffffffffffffffffffffffffffffffff03821115610c0f57610c0e6109ff565b5b828201905092915050565b6000610c2582610792565b9150610c3083610792565b9250817fffffffffffffffffffffffffffffffffffffffffffffffffffffffffffffffff0483118215151615610c6957610c686109ff565b5b828202905092915050565b7f4e487b7100000000000000000000000000000000000000000000000000000000600052601260045260246000fd5b6000610cae82610792565b9150610cb983610792565b925082610cc957610cc8610c74565b5b828204905092915050565b600069ffffffffffffffffffff82169050919050565b610cf381610cd4565b8114610cfe57600080fd5b50565b600081519050610d1081610cea565b92915050565b6000819050919050565b610d2981610d16565b8114610d3457600080fd5b50565b600081519050610d4681610d20565b92915050565b600081519050610d5b816107cb565b92915050565b600080600080600060a08688031215610d7d57610d7c6107c6565b5b6000610d8b88828901610d01565b9550506020610d9c88828901610d37565b9450506040610dad88828901610d4c565b9350506060610dbe88828901610d4c565b9250506080610dcf88828901610d01565b9150509295509295909350565b6000610de782610d16565b9150610df283610d16565b9250827f7fffffffffffffffffffffffffffffffffffffffffffffffffffffffffffffff0482116000841360008413161615610e3157610e306109ff565b5b817f80000000000000000000000000000000000000000000000000000000000000000583126000841260008413161615610e6e57610e6d6109ff565b5b827f80000000000000000000000000000000000000000000000000000000000000000582126000841360008412161615610eab57610eaa6109ff565b5b827f7fffffffffffffffffffffffffffffffffffffffffffffffffffffffffffffff0582126000841260008412161615610ee857610ee76109ff565b5b82820290509291505056fea26469706673582212205907589ad449096b464c7c5ee052ae0bbc22b2c1f2a7f85709bb9d5a90b4563d64736f6c63430008080033",
  "devdoc": {
    "author": "Aarav Jain",
    "details": "This implements Price Feeds as our library",
    "kind": "dev",
    "methods": {},
    "title": "This is a crowd funding contract",
    "version": 1
  },
  "userdoc": {
    "kind": "user",
    "methods": {},
    "notice": "This contract is to demo a sample funding contract",
    "version": 1
  },
  "storageLayout": {
    "storage": [
      {
        "astId": 55,
        "contract": "contracts/fundMe.sol:FundMe",
        "label": "minimumUSD",
        "offset": 0,
        "slot": "0",
        "type": "t_uint256"
      },
      {
        "astId": 58,
        "contract": "contracts/fundMe.sol:FundMe",
        "label": "s_funders",
        "offset": 0,
        "slot": "1",
        "type": "t_array(t_address)dyn_storage"
      },
      {
        "astId": 62,
        "contract": "contracts/fundMe.sol:FundMe",
        "label": "s_addressToAmount",
        "offset": 0,
        "slot": "2",
        "type": "t_mapping(t_address,t_uint256)"
      },
      {
        "astId": 67,
        "contract": "contracts/fundMe.sol:FundMe",
        "label": "s_pricefeed",
        "offset": 0,
        "slot": "3",
        "type": "t_contract(AggregatorV3Interface)45"
      }
    ],
    "types": {
      "t_address": {
        "encoding": "inplace",
        "label": "address",
        "numberOfBytes": "20"
      },
      "t_array(t_address)dyn_storage": {
        "base": "t_address",
        "encoding": "dynamic_array",
        "label": "address[]",
        "numberOfBytes": "32"
      },
      "t_contract(AggregatorV3Interface)45": {
        "encoding": "inplace",
        "label": "contract AggregatorV3Interface",
        "numberOfBytes": "20"
      },
      "t_mapping(t_address,t_uint256)": {
        "encoding": "mapping",
        "key": "t_address",
        "label": "mapping(address => uint256)",
        "numberOfBytes": "32",
        "value": "t_uint256"
      },
      "t_uint256": {
        "encoding": "inplace",
        "label": "uint256",
        "numberOfBytes": "32"
      }
    }
  }
}