{
  "address": "0xb92060aa5805029853afcdcfdff8b428b3df7618",
  "abi": [
    {
      "inputs": [
        {
          "internalType": "address",
          "name": "pricefeedAddress",
          "type": "address"
        }
      ],
      "stateMutability": "nonpayable",
      "type": "constructor"
    },
    {
      "inputs": [
        {
          "internalType": "address",
          "name": "",
          "type": "address"
        }
      ],
      "name": "addressToAmount",
      "outputs": [
        {
          "internalType": "uint256",
          "name": "",
          "type": "uint256"
        }
      ],
      "stateMutability": "view",
      "type": "function"
    },
    {
      "inputs": [],
      "name": "fund",
      "outputs": [],
      "stateMutability": "payable",
      "type": "function"
    },
    {
      "inputs": [
        {
          "internalType": "uint256",
          "name": "",
          "type": "uint256"
        }
      ],
      "name": "funders",
      "outputs": [
        {
          "internalType": "address",
          "name": "",
          "type": "address"
        }
      ],
      "stateMutability": "view",
      "type": "function"
    },
    {
      "inputs": [],
      "name": "minimumUSD",
      "outputs": [
        {
          "internalType": "uint256",
          "name": "",
          "type": "uint256"
        }
      ],
      "stateMutability": "view",
      "type": "function"
    },
    {
      "inputs": [],
      "name": "owner",
      "outputs": [
        {
          "internalType": "address",
          "name": "",
          "type": "address"
        }
      ],
      "stateMutability": "view",
      "type": "function"
    },
    {
      "inputs": [],
      "name": "withdraw",
      "outputs": [],
      "stateMutability": "nonpayable",
      "type": "function"
    }
  ],
  "transactionHash": "0x62db6718c42d6e996fd57ae84f4b94a39368ce60314d2131487c980ed2a226d0",
  "args": [
    "0xD4a33860578De61DBAbDc8BFdb98FD742fA7028e"
  ],
  "numDeployments": 1,
  "solcInputHash": "3e0442113249dfbf40336c7ed04aa9ab",
  "bytecode": "0x6080604052603260005534801561001557600080fd5b50604051610f41380380610f4183398181016040528101906100379190610122565b33600360006101000a81548173ffffffffffffffffffffffffffffffffffffffff021916908373ffffffffffffffffffffffffffffffffffffffff16021790555080600460006101000a81548173ffffffffffffffffffffffffffffffffffffffff021916908373ffffffffffffffffffffffffffffffffffffffff1602179055505061014f565b600080fd5b600073ffffffffffffffffffffffffffffffffffffffff82169050919050565b60006100ef826100c4565b9050919050565b6100ff816100e4565b811461010a57600080fd5b50565b60008151905061011c816100f6565b92915050565b600060208284031215610138576101376100bf565b5b60006101468482850161010d565b91505092915050565b610de38061015e6000396000f3fe6080604052600436106100555760003560e01c80633430a88c1461005a5780633c7e7d28146100855780633ccfd60b146100c25780638da5cb5b146100d9578063b60d428814610104578063dc0d3dff1461010e575b600080fd5b34801561006657600080fd5b5061006f61014b565b60405161007c91906106df565b60405180910390f35b34801561009157600080fd5b506100ac60048036038101906100a7919061075d565b610151565b6040516100b991906106df565b60405180910390f35b3480156100ce57600080fd5b506100d7610169565b005b3480156100e557600080fd5b506100ee6103b5565b6040516100fb9190610799565b60405180910390f35b61010c6103db565b005b34801561011a57600080fd5b50610135600480360381019061013091906107e0565b61050f565b6040516101429190610799565b60405180910390f35b60005481565b60026020528060005260406000206000915090505481565b600360009054906101000a900473ffffffffffffffffffffffffffffffffffffffff1673ffffffffffffffffffffffffffffffffffffffff163373ffffffffffffffffffffffffffffffffffffffff16146101f9576040517f08c379a00000000000000000000000000000000000000000000000000000000081526004016101f09061086a565b60405180910390fd5b60005b6001805490508110156102a55760006001828154811061021f5761021e61088a565b5b9060005260206000200160009054906101000a900473ffffffffffffffffffffffffffffffffffffffff1690506000600260008373ffffffffffffffffffffffffffffffffffffffff1673ffffffffffffffffffffffffffffffffffffffff1681526020019081526020016000208190555050808061029d906108e8565b9150506101fc565b50600067ffffffffffffffff8111156102c1576102c0610931565b5b6040519080825280602002602001820160405280156102ef5781602001602082028036833780820191505090505b506001908051906020019061030592919061061f565b5060003373ffffffffffffffffffffffffffffffffffffffff164760405161032c90610991565b60006040518083038185875af1925050503d8060008114610369576040519150601f19603f3d011682016040523d82523d6000602084013e61036e565b606091505b50509050806103b2576040517f08c379a00000000000000000000000000000000000000000000000000000000081526004016103a9906109f2565b60405180910390fd5b50565b600360009054906101000a900473ffffffffffffffffffffffffffffffffffffffff1681565b600054610413600460009054906101000a900473ffffffffffffffffffffffffffffffffffffffff163461054e90919063ffffffff16565b1015610454576040517f08c379a000000000000000000000000000000000000000000000000000000000815260040161044b90610a5e565b60405180910390fd5b6001339080600181540180825580915050600190039060005260206000200160009091909190916101000a81548173ffffffffffffffffffffffffffffffffffffffff021916908373ffffffffffffffffffffffffffffffffffffffff16021790555034600260003373ffffffffffffffffffffffffffffffffffffffff1673ffffffffffffffffffffffffffffffffffffffff16815260200190815260200160002060008282546105069190610a7e565b92505081905550565b6001818154811061051f57600080fd5b906000526020600020016000915054906101000a900473ffffffffffffffffffffffffffffffffffffffff1681565b6000670de0b6b3a7640000836105638461057f565b61056d9190610ad4565b6105779190610b5d565b905092915050565b6000808273ffffffffffffffffffffffffffffffffffffffff1663feaf968c6040518163ffffffff1660e01b815260040160a06040518083038186803b1580156105c857600080fd5b505afa1580156105dc573d6000803e3d6000fd5b505050506040513d601f19601f820116820180604052508101906106009190610c1b565b5050509150506402540be400816106179190610c96565b915050919050565b828054828255906000526020600020908101928215610698579160200282015b828111156106975782518260006101000a81548173ffffffffffffffffffffffffffffffffffffffff021916908373ffffffffffffffffffffffffffffffffffffffff1602179055509160200191906001019061063f565b5b5090506106a591906106a9565b5090565b5b808211156106c25760008160009055506001016106aa565b5090565b6000819050919050565b6106d9816106c6565b82525050565b60006020820190506106f460008301846106d0565b92915050565b600080fd5b600073ffffffffffffffffffffffffffffffffffffffff82169050919050565b600061072a826106ff565b9050919050565b61073a8161071f565b811461074557600080fd5b50565b60008135905061075781610731565b92915050565b600060208284031215610773576107726106fa565b5b600061078184828501610748565b91505092915050565b6107938161071f565b82525050565b60006020820190506107ae600083018461078a565b92915050565b6107bd816106c6565b81146107c857600080fd5b50565b6000813590506107da816107b4565b92915050565b6000602082840312156107f6576107f56106fa565b5b6000610804848285016107cb565b91505092915050565b600082825260208201905092915050565b7f53656e646572206973206e6f74206f776e657200000000000000000000000000600082015250565b600061085460138361080d565b915061085f8261081e565b602082019050919050565b6000602082019050818103600083015261088381610847565b9050919050565b7f4e487b7100000000000000000000000000000000000000000000000000000000600052603260045260246000fd5b7f4e487b7100000000000000000000000000000000000000000000000000000000600052601160045260246000fd5b60006108f3826106c6565b91507fffffffffffffffffffffffffffffffffffffffffffffffffffffffffffffffff821415610926576109256108b9565b5b600182019050919050565b7f4e487b7100000000000000000000000000000000000000000000000000000000600052604160045260246000fd5b600081905092915050565b50565b600061097b600083610960565b91506109868261096b565b600082019050919050565b600061099c8261096e565b9150819050919050565b7f43616c6c204661696c6564000000000000000000000000000000000000000000600082015250565b60006109dc600b8361080d565b91506109e7826109a6565b602082019050919050565b60006020820190508181036000830152610a0b816109cf565b9050919050565b7f4469646e27742070617920656e6f756768205553440000000000000000000000600082015250565b6000610a4860158361080d565b9150610a5382610a12565b602082019050919050565b60006020820190508181036000830152610a7781610a3b565b9050919050565b6000610a89826106c6565b9150610a94836106c6565b9250827fffffffffffffffffffffffffffffffffffffffffffffffffffffffffffffffff03821115610ac957610ac86108b9565b5b828201905092915050565b6000610adf826106c6565b9150610aea836106c6565b9250817fffffffffffffffffffffffffffffffffffffffffffffffffffffffffffffffff0483118215151615610b2357610b226108b9565b5b828202905092915050565b7f4e487b7100000000000000000000000000000000000000000000000000000000600052601260045260246000fd5b6000610b68826106c6565b9150610b73836106c6565b925082610b8357610b82610b2e565b5b828204905092915050565b600069ffffffffffffffffffff82169050919050565b610bad81610b8e565b8114610bb857600080fd5b50565b600081519050610bca81610ba4565b92915050565b6000819050919050565b610be381610bd0565b8114610bee57600080fd5b50565b600081519050610c0081610bda565b92915050565b600081519050610c15816107b4565b92915050565b600080600080600060a08688031215610c3757610c366106fa565b5b6000610c4588828901610bbb565b9550506020610c5688828901610bf1565b9450506040610c6788828901610c06565b9350506060610c7888828901610c06565b9250506080610c8988828901610bbb565b9150509295509295909350565b6000610ca182610bd0565b9150610cac83610bd0565b9250827f7fffffffffffffffffffffffffffffffffffffffffffffffffffffffffffffff0482116000841360008413161615610ceb57610cea6108b9565b5b817f80000000000000000000000000000000000000000000000000000000000000000583126000841260008413161615610d2857610d276108b9565b5b827f80000000000000000000000000000000000000000000000000000000000000000582126000841360008412161615610d6557610d646108b9565b5b827f7fffffffffffffffffffffffffffffffffffffffffffffffffffffffffffffff0582126000841260008412161615610da257610da16108b9565b5b82820290509291505056fea2646970667358221220a6f7e35f902e519069f041a9f6f7ab9908892c9278d1131c84bbd0433f4a187f64736f6c63430008080033",
  "devdoc": {
    "kind": "dev",
    "methods": {},
    "version": 1
  },
  "userdoc": {
    "kind": "user",
    "methods": {},
    "version": 1
  },
  "storageLayout": {
    "storage": [
      {
        "astId": 54,
        "contract": "contracts/fundMe.sol:FundMe",
        "label": "minimumUSD",
        "offset": 0,
        "slot": "0",
        "type": "t_uint256"
      },
      {
        "astId": 57,
        "contract": "contracts/fundMe.sol:FundMe",
        "label": "funders",
        "offset": 0,
        "slot": "1",
        "type": "t_array(t_address)dyn_storage"
      },
      {
        "astId": 61,
        "contract": "contracts/fundMe.sol:FundMe",
        "label": "addressToAmount",
        "offset": 0,
        "slot": "2",
        "type": "t_mapping(t_address,t_uint256)"
      },
      {
        "astId": 63,
        "contract": "contracts/fundMe.sol:FundMe",
        "label": "owner",
        "offset": 0,
        "slot": "3",
        "type": "t_address"
      },
      {
        "astId": 66,
        "contract": "contracts/fundMe.sol:FundMe",
        "label": "pricefeed",
        "offset": 0,
        "slot": "4",
        "type": "t_contract(AggregatorV3Interface)45"
      }
    ],
    "types": {
      "t_address": {
        "encoding": "inplace",
        "label": "address",
        "numberOfBytes": "20"
      },
      "t_array(t_address)dyn_storage": {
        "base": "t_address",
        "encoding": "dynamic_array",
        "label": "address[]",
        "numberOfBytes": "32"
      },
      "t_contract(AggregatorV3Interface)45": {
        "encoding": "inplace",
        "label": "contract AggregatorV3Interface",
        "numberOfBytes": "20"
      },
      "t_mapping(t_address,t_uint256)": {
        "encoding": "mapping",
        "key": "t_address",
        "label": "mapping(address => uint256)",
        "numberOfBytes": "32",
        "value": "t_uint256"
      },
      "t_uint256": {
        "encoding": "inplace",
        "label": "uint256",
        "numberOfBytes": "32"
      }
    }
  }
}